:020000040800F2
:100000005007002091010008BB12000839110008B8
:10001000B9120008C30400085B15000800000000C6
:10002000000000000000000000000000BF120008F7
:10003000C504000800000000BD120008C11200083D
:10004000AB010008AB010008AB010008AB010008E0
:10005000AB010008AB010008AB010008AB010008D0
:10006000AB010008AB010008AB010008AB010008C0
:10007000AB010008AB010008AB010008AB010008B0
:10008000AB010008AB010008AB010008AB010008A0
:10009000AB010008AB010008AB010008AB01000890
:1000A000AB010008AB010008AB010008AB01000880
:1000B000AB010008AB010008AB010008AB01000870
:1000C000AB010008AB010008AB010008AB01000860
:1000D000AB010008AB010008AB010008AB01000850
:1000E000AB010008AB010008AB01000800F002F80A
:1000F00000F03FF80AA090E8000C82448344AAF183
:100100000107DA4501D100F034F8AFF2090EBAE880
:100110000F0013F0010F18BFFB1A43F0010318473B
:100120002C1700004C170000103A24BF78C878C183
:10013000FAD8520724BF30C830C144BF04680C60ED
:10014000704700000023002400250026103A28BF35
:1001500078C1FBD8520728BF30C148BF0B60704739
:10016000642900F07D80002070471FB51FBD10B5C9
:1001700010BD00F070F91146FFF7F7FF01F0B6FA75
:1001800000F08EF903B4FFF7F2FF03BC00F092F920
:100190000948804709480047FEE7FEE7FEE7FEE71B
:1001A000FEE7FEE7FEE7FEE7FEE7FEE70448054957
:1001B000054A064B7047000023130008ED000008B5
:1001C0005001002050070020500300205003002061
:1001D0000FB41CB5074B06AA7B44694600900598EE
:1001E00000F021F90020694600F030F91CBC5DF8F0
:1001F00014FB0000710200002DE9F0410E46044698
:10020000002020622046E168884730B3252805D0C9
:10021000D4E901219047206A401CF2E7E1682046BA
:1002200000278847050018D0A5F14100192802D8F9
:1002300020354FF400673246294620462760FFF7F5
:100240008FFF40B1012804D0F61D26F007060836BE
:10025000D8E7361DD6E72846DAE7206ABDE8F08100
:100260002DE9F0410646002410687529314616A58F
:1002700010D0AFF30080002802DA404213A507E057
:1002800031688A0701D512A502E0490704D511A5F6
:10029000012401E0AFF3008000210A2206F12407C7
:1002A00009E0B0FBF2FCB0FBF2F302FB1C003030C3
:1002B00078541846491C0028F3D123462A46304674
:1002C000BDE8F04100F051B8000000002D00000032
:1002D0002B0000002000000010B5431C02E010F8C5
:1002E000011B71B18107FAD14FF0013202C88C1A9B
:1002F0008C4314EAC211F9D0C01A0A0603D0C01EFA
:1003000010BDC01A10BD0A0401D0801E10BD090224
:10031000FCD0401E10BD4FF0000200B513469446BD
:100320009646203922BFA0E80C50A0E80C50B1F14D
:100330002001BFF4F7AF090728BFA0E80C5048BF61
:100340000CC05DF804EB890028BF40F8042B08BFFF
:10035000704748BF20F8022B11F0804F18BF00F8FB
:10036000012B70477047704770472DE9F0470D46E5
:1003700099469246044600F124080168880604D58F
:10038000E06921F01001216000E00120A84201DDB8
:10039000471B00E00027A1697A1902EB0900081A3F
:1003A000A0612078C00602D42046AFF3008000266A
:1003B00008E0D4E901211AF806009047206A401CA1
:1003C000761C20624E45F4DB2078C0060AD5204614
:1003D000AFF3008006E0D4E9012130209047206A85
:1003E000401C2062381EA7F10107F4DC07E0D4E9C5
:1003F000012118F805009047206A401C2062281E41
:10040000A5F10105F3DC2046AFF30080207800065B
:1004100002D50220BDE8F0870120FBE701694A1CF4
:1004200002610878704700B58FB0CDE90131002135
:10043000059105497944CDE9031011466846FFF757
:10044000DBFE0FB000BD0000E5FFFFFF0A6802F809
:10045000010B0A607047754600F028F8AE460500AB
:100460006946534620F00700854618B020B5FFF7CF
:100470009DFEBDE820404FF000064FF000074FF012
:1004800000084FF0000B21F00701AC46ACE8C009B2
:10049000ACE8C009ACE8C009ACE8C0098D467047BB
:1004A0000446AFF300802046FFF76CFE004870471B
:1004B000F000002001491820ABBEFEE72600020034
:1004C0007047FEE7704772B6FEE7000070B504465D
:1004D00000F010F90546601C02D00448007804447E
:1004E00000F008F9401BA042FAD370BD5000002074
:1004F0002DE9F84FDFF8B8910024A9F1040B234649
:100500000F2709F1040AABF1040EC9E00125A5404B
:100510002A40AA427DD1674ED1F804C0ACEB060850
:10052000B44532D014DCBCF1030F3AD009DCBCF185
:10053000000F2AD0BCF1010F1CD0BCF1020F31D149
:100540001DE0BCF1110F17D0BCF1120F2AD119E038
:10055000B8F5881F19D006DCB8F5803F15D0B8F57E
:10056000801F1FD111E0B8F5001F0ED0B8F5041F91
:1005700018D10AE0CB6815E0CB681B1D12E0CB68F0
:1005800008330FE0CB680C330CE08B682BB1012BE8
:100590004FF0080303D0456104E0042302E0056145
:1005A00000E00023FF2A01D8064601E000F104061E
:1005B0004FEA840501D9A5F12005D6F8008007FA95
:1005C00005FC28EA0C0803FA05F548EA0508C6F810
:1005D00000804D68ED0062D5374DAE6946F00106EA
:1005E000AE61AD6924F0030605F001050095334DB9
:1005F00006EB050CDCF80850A607360F07FA06F8DC
:1006000025EA0805DFF8B880404503D14FF000081F
:1006100017E044E0DFF8AC80404502D14FF001081C
:100620000FE0DFF8A480404502D14FF0020808E057
:10063000DFF89880404502D14FF0030801E04FF009
:10064000040808FA06F848EA0508CCF808804D685E
:10065000D9F80060ED024D4601D5164300E09643FF
:100660002E604D68DAF80060AD02554601D516439C
:1006700000E096432E604D68DBF80060AD035D46F8
:1006800001D5164300E096432E604D68DEF8006009
:10069000ED03754601D5164300E096432E60641CB9
:1006A0000D682A46E5407FF431AFBDE8F88F0000C1
:1006B0000804014000001110001002400000014039
:1006C00000080140000C01400010014000140140EE
:1006D0008068084000D001207047C26821EA020308
:1006E0000A4043EA0241016170470AB10161704763
:1006F0000904FBE7014880687047000050000020B3
:1007000002488168027811448160704750000020DF
:10071000074810B5016841F010010160032000F0A6
:1007200065F80F2000F006F800F024F8002010BD56
:100730000020024070B50D4D04464FF47A712878C0
:10074000B1FBF0F00A490968B1FBF0F000F0ACFA37
:1007500048B9102C07D200222146501E00F026F87E
:1007600000206C6070BD012070BD000050000020B2
:100770005C0000200B4808B5816941F001018161EE
:10078000816901F001010091C16941F08051C161AD
:10079000C06900F0805000900348416821F0E0619A
:1007A000416008BD0010024000000140F0B40E4B53
:1007B0001B680C46C3F30223C3F10705042D00D9BF
:1007C0000425191D072901D2002300E0DB1E0126A4
:1007D00006FA05F1491E214099409E40761E1640BA
:1007E0003143F0BC00F0BABE0CED00E0064900F069
:1007F000070208684FF6FF03184040EA0220034A48
:1008000010430860704700000CED00E00000FA059E
:100810002DE9F0470F46050061D0434E306800F0E7
:100820000700B84209D2306820F007003843306032
:10083000306800F00700B84251D128683B4C81076E
:1008400012D5400703D5606840F4E0606060287806
:10085000000703D5606840F4605060606068A96874
:1008600020F0F000084360602878C00728D068684E
:10087000012810D02168022810D0890700292EDA1B
:10088000616821F0030101436160FFF733FF804697
:1008900041F288390DE021688903EFE78901EDE72E
:1008A000FFF728FFA0EB0801494502D90320BDE866
:1008B000F0876068696800F00C00B0EB810FEFD141
:1008C000306800F00700B8420BD9306820F007000C
:1008D00038433060306800F00700B84201D0012092
:1008E000E5E72878400705D56068E96820F4E0600E
:1008F000084360602878000706D56068296920F4FD
:10090000605040EAC100606000F018F86168084A71
:10091000C1F30311515CC8400649086006480068ED
:10092000FFF708FF0020C2E700200240001002404D
:100930003A1800085C000020540000200E4A51685C
:100940000E4801F00C03042B11D0082B0FD10C48DA
:10095000C1F38343C903C05C0AD55168084AC1F397
:100960004041921E515C054A5043B0FBF1F0704784
:1009700004494843704700000010024000127A000A
:100980002A18000800093D002DE9F84F040070D036
:100990002078C04DC00749D06868C0F381000128A5
:1009A00007D06868C0F38100022809D16868C003D5
:1009B00006D52868800339D560680028E7D035E07F
:1009C0006068B0F5803F0BD010B1B0F5A02F11D00A
:1009D000286820F480302860286820F4802002E015
:1009E000286840F480302860606890B1FFF782FE8C
:1009F00006460AE0286840F480202860F0E700BF3F
:100A0000FFF778FE801B642873D828688003F7D529
:100A10000CE0FFF76FFE064605E000BFFFF76AFE39
:100A2000801B6428F0D828688003F7D420789A4E79
:100A300080074FF001094FF0000839D5686810F0C1
:100A40000C0F07D06868C0F38100022809D16868DC
:100A5000C00306D42868800714D52069012808D16E
:100A600010E02069B0B1C6F80090FFF743FE0746DA
:100A700005E00AE1FFF73EFEC01B0228C4D8286843
:100A80008007F7D52868616920F0F80040EAC100C6
:100A900028600DE0C6F80080FFF72CFE074604E052
:100AA000FFF728FEC01B022823D828688007F7D448
:100AB000207800072CD57948A169D9B1C0F80090F9
:100AC000FFF718FE074604E0FFF714FEC01B0228DC
:100AD0000FD8686A8007F7D571484FF4FA5100685B
:100AE000B0FBF1F0009000BF0098411E0091FAD2D7
:100AF0000EE080E0C0F80080FFF7FCFD074604E050
:100B0000FFF7F8FDC01B022875D8686A8007F7D484
:100B10002078400760D5E8690027C00008D4E8695C
:100B200040F08050E861E869012700F080500090B3
:100B30005C480168C90513D40168834641F480719B
:100B40000160FFF7D7FD824606E000BFFFF7D2FD48
:100B5000A0EB0A0064284ED8DBF80000C005F5D5EC
:100B6000E06801280AD008B1052813D0286A20F0CF
:100B700001002862286A20F0040002E0286A40F0A0
:100B800001002862E06841F2883B98B1FFF7B2FDAE
:100B900082460BE0286A40F004002862EEE700BFBE
:100BA000FFF7A8FDA0EB0A0159455AD8286A80072B
:100BB000F6D50CE0FFF79EFD824605E0FFF79AFDB3
:100BC000A0EB0A0159454CD8286A8007F6D41FB11A
:100BD000E86920F08050E861E06988B36968C1F392
:100BE0008101022944D00228C6F8608004D0FFF7B2
:100BF00081FD044638E034E0FFF77CFD074604E061
:100C0000FFF778FDC01B02282BD828688001F7D495
:100C1000206AB0F5803F05D16868A16820F40030F3
:100C200008436860D4E908010843696821F4741135
:100C300008436860C6F86090FFF75CFD044606E074
:100C400025E000BFFFF756FD001B022809D82868E1
:100C50008001F7D51BE000BFFFF74CFD001B022809
:100C600002D90320BDE8F88F28688001F4D40EE093
:100C70000128F7D06868226A00F48031914204D1DB
:100C8000616A00F47010884201D00120EAE7002078
:100C9000E8E70000001002400000424280044242A7
:100CA0005C0000200070004010B5401EB0F1807F55
:100CB00001D3012010BD4FF0E02460610F216017C7
:100CC00000F04CFC0020A06107202061002010BD36
:100CD00070B590F83C20012A26D0012480F83C40D1
:100CE000022280F83D2003685A689D6822F0700651
:100CF0000A6832435A600D4B02689A4208D0B2F13A
:100D0000804F05D00A4B9A4202D00A4B9A4204D136
:100D1000496825F080031943916080F83D40002127
:100D200080F83C10084670BD022070BD002C0140C8
:100D3000000400400008004010B5040003D094F8FF
:100D40003D0010B107E0012010BD002084F83C00F8
:100D5000204600F01FF8022084F83D00211D206885
:100D600000F0E0FA012084F8460084F83E0084F8A0
:100D70003F0084F8400084F8410084F8420084F881
:100D8000430084F8440084F8450084F83D000020C6
:100D900010BD000008B500680649884208D1064821
:100DA000816941F400618161806900F40060009014
:100DB00008BD0000002C01400010024070B5044640
:100DC00090F83C000025012817D0012684F83C60EB
:100DD000022084F83D002068826822F0770222F425
:100DE0007F4282600868502838D00DDC20284FD020
:100DF00005DC90B3102811D14AE0022070BD3028E4
:100E000046D040280AD13BE060282FD070280DD072
:100E1000B0F5805F03D0B0F5005F12D0012584F8F3
:100E20003D60002084F83C00284670BDCB68D1E9C5
:100E30000121206800F0B9FA2068816841F077014B
:100E400009E0CB68D1E90121206800F0AEFA206802
:100E5000816841F480418160E1E719E0CA6849682E
:100E6000206800F057FB5021206806E0CA684968F6
:100E7000206800F060FB6021206800F0A0FACEE757
:100E8000CA684968206800F045FB40212068F4E703
:100E9000226801461046F0E700B585B000210091B8
:100EA0000191029103910068B0F1804F11D10A487D
:100EB000816941F0040181618069694600F00400A4
:100EC0000490032000900220019003900348FFF754
:100ED0000FFB05B000BD00000010024000080140FB
:100EE00070B5044690F83C0000260D4601280FD04E
:100EF000012084F83C006AB1042A1DD0082A2FD0B2
:100F00000C2A3FD00126002084F83C00304670BDFA
:100F1000022070BD206800F05BFA2068816941F012
:100F2000080181612068816921F0040181612068E4
:100F300081692A69114311E0206800F071FA206884
:100F4000816941F4006181612068816921F48061D7
:100F50008161206881692A6941EA02218161D2E7C1
:100F6000206800F089FA2068C16941F00801C16178
:100F70002068C16921F00401C1612068C1692A6942
:100F8000114311E0206800F0A3FA2068C16941F420
:100F90000061C1612068C16921F48061C16120687C
:100FA000C1692A6941EA0221C161ACE710B50400B8
:100FB00003D094F83D0010B107E0012010BD0020DF
:100FC00084F83C00204600F01FF8022084F83D0021
:100FD000211D206800F0A6F9012084F8460084F85D
:100FE0003E0084F83F0084F8400084F8410084F813
:100FF000420084F8430084F8440084F8450084F8F3
:101000003D00002010BD000008B50068B0F1804F21
:1010100008D10548C16941F00101C161C06900F012
:101020000100009008BD00000010024010B5044609
:10103000022249B104290ED0082913D094F84100A6
:10104000012816D0012010BD94F83E000128F9D1E6
:1010500084F83E200FE094F83F000128F2D184F894
:101060003F2008E094F840000128EBD184F84020AC
:1010700001E084F841200122206800F089F90F493D
:101080002068884203D1426C42F4004242642068E6
:10109000884208D0B0F1804F05D00949884202D07B
:1010A0000849884204D1816801F00701062903D06C
:1010B000016841F001010160002010BD002C0140D9
:1010C000000400400008004030B504460D460068AA
:1010D000002200F05DF9174B41F2111120688A10CF
:1010E000984209D1036A0B4206D1036A134203D125
:1010F000436C23F4004343642068036A0B4206D127
:10110000016A114203D1016821F00101016001204F
:101110003DB1042D08D0082D09D084F841000020ED
:1011200030BD84F83E00FAE784F83F00F7E784F822
:101130004000F4E7002C0140FEE7000070B586B0E7
:10114000002420480094019402940394816941F0A2
:1011500010018161816901F010010491816941F000
:1011600020018161816901F020010491816941F0D0
:1011700004018161816901F004010491816941F0F8
:10118000080181618069104E00F008004FF400559D
:101190000490002229463046FFF7A7FA0220CDE945
:1011A000024000950125694601953046FFF7A0F9F8
:1011B000E8028DE8310069460448FFF799F906B066
:1011C00070BD00000010024000100140000C014002
:1011D00010B586B00024174800940194029403943B
:1011E00004941349059401604721C0E901144FF6A6
:1011F000FF71C0E9031444618461FFF79DFD08B1EC
:10120000FFF761F94FF48050009069460948FFF7F5
:10121000D5FD08B1FFF757F9049404A905480594D2
:10122000FFF756FD002801D0FFF74DF906B010BDBD
:10123000002C01406000002010B58AB00024079403
:101240001C2168460894FFF766F81A484FF0804161
:10125000C0E9001440F26671C0E902410461846192
:10126000FFF7A4FE08B1FFF72EF9079407A911486C
:101270000894FFF72DFD08B1FFF725F960200090D5
:101280004FF46D70CDE901040022694609480494C9
:10129000FFF726FE08B1FFF716F904226946054854
:1012A000FFF71EFE08B1FFF70EF90248FFF7F4FD45
:1012B0000AB010BDA8000020FEE7FEE770477047A7
:1012C000FFF71EBA30B58FB028216846FFF723F824
:1012D00014210AA8FFF71FF801210804CDE9001026
:1012E0000024029402250491CDE907504FF4E01048
:1012F00009906846FFF748FB08B172B6FEE70F2079
:10130000CDE90A054FF48060CDE90C4002210AA81E
:101310000E94FFF77DFA002801D072B6FEE70FB0F9
:1013200030BD7047F0B50268164B174C174D4FF0A3
:101330008047984205D0B84203D0A04201D0A842CD
:1013400003D122F070064A683243984205D0B84271
:1013500003D0A04201D0A84203D122F44074CA684D
:1013600022434C6922F08002224302608A68C262F2
:101370000A688262984201D10969016301214161D1
:10138000F0BD0000002C01400004004000080040B7
:1013900010B501F01F030121046A99408C430462D7
:1013A000016A9A401143016210BD10B5846842EA97
:1013B000032224F47F440A432243826010BD8268E2
:1013C00022F070020A4342F007018160704700007A
:1013D00030B5036A026A22F001020262426884693F
:1013E00024F073050C682C4323F002058B682B4313
:1013F0000A4DA8420BD123F00805CB6822F44072B5
:101400002B434D6923F0040315438A692A43426044
:10141000846149684163036230BD0000002C0140D3
:1014200030B5026A036A23F01003036243688469DB
:101430000D6824F4E64444EA05248D6822F0200275
:1014400042EA05120B4DA8420ED1CD6822F080026F
:1014500042EA05124D6923F4406343EA85038D692E
:1014600022F0400243EA8503436084614968816356
:10147000026230BD002C014030B5036A026A22F4DA
:10148000807202624268C46923F4007324F0730519
:101490000C682C438D6843EA05230C4DA8420ED1FD
:1014A000CD6823F4006343EA05234D6922F44052DA
:1014B00042EA05128D6923F4806342EA0512426014
:1014C000C4614968C163036230BD0000002C014063
:1014D00030B5046A026A22F4805202624268C3692B
:1014E0000D6823F4E64343EA05238D6824F4005491
:1014F00044EA0534064DA84204D14D6922F48042E5
:1015000042EA85124260C36149680164046230BDE9
:10151000002C014010B5036A046A24F0010404623F
:10152000846924F0F00444EA021423F00A020A4316
:101530008461026210BD10B5036A046A24F01004CD
:101540000462846923F0A00324F4704444EA023264
:1015500043EA01118261016210BDFEE70907090E2D
:10156000002804DB00F1E02080F80014704700F050
:101570000F0000F1E02080F8141D704770B54FF0A7
:10158000E02300215C6900EBC0009A69C5009869FE
:101590009042FCD002D2A2EB000202E0A4EB0006D3
:1015A000324411440246A942F1D370BD2DE9F047FF
:1015B000804604214B48FFF739FD00214948FFF7D9
:1015C00035FD40F638694846FFF7D8FF0421454805
:1015D000FFF77AFD00214348FFF776FD4FF4E16AFB
:1015E0005046FFF7CBFF404C00254FF48C67A078A6
:1015F0006178000440EA0120217808437E10606091
:1016000004213848FFF712FD00213648FFF70EFD90
:101610003046FFF7B3FF04213248FFF755FD0021A4
:101620003048FFF751FD6068E840C00701D03846F8
:1016300000E03046FFF7A2FF6D1C182DE0DB04210F
:101640002848FFF7F3FC00212648FFF7EFFC484647
:10165000FFF794FF04212348FFF736FD00212148BE
:10166000FFF732FD5046FFF789FFE178002541EA98
:101670000820606004211B48FFF7D8FC00211948AE
:10168000FFF7D4FC3046FFF779FF04211548FFF738
:101690001BFD00211348FFF717FD6068E840C007F5
:1016A00001D0384600E03046FFF768FF6D1C102D72
:1016B000E0DB04210B48FFF7B9FC00210948FFF7E4
:1016C000B5FC3046FFF75AFF04210648FFF7FCFC43
:1016D00000210448FFF7F8FCBDE8F0474DF2F02088
:1016E000FFF74CBFA80000200000002008B5FFF75E
:1016F0000FF8FFF7E7FDFFF721FDFFF769FDFFF7A3
:101700009BFD4FF0804040F26671C162C16A49089A
:101710008163C16A490841633EA0DFF8FC9000681C
:1017200000244FF400680090454641464E46484626
:10173000FEF7CEFF10B10C2C02D202E0062C00D333
:10174000002429463046FEF7C3FF08B1334801E0C4
:101750003248303032A150F824206846FEF738FD78
:1017600000256E464FF4487706E0705DFFF71EFFD8
:101770003846FEF7ABFE6D1C6846FEF7ADFDA8428D
:10178000F3D8284E4FF4005529463046FEF7A5FF02
:101790003220FEF79BFE29463046FEF79EFF3220A0
:1017A000FEF794FE29463046FEF797FF3220FEF7FB
:1017B0008DFE29463046FEF790FF40F6B837384692
:1017C000641CFEF783FE29463046FEF786FF384646
:1017D000FEF77CFE29463046FEF77FFF3846FEF7CF
:1017E00075FE29463046FEF778FF3846FEF76EFE56
:1017F00029463046FEF771FF3846FEF767FE294658
:101800003046FEF76AFF012229463046FEF76DFF9B
:101810008AE7000031363800000C01400800002043
:1018200025640000001001400102020304050607C0
:1018300008090A0B0C0D0E0F10100000000000002C
:101840000000010203040607080900006C180008E4
:10185000000000206000000028010008CC180008EB
:1018600060000020F006000044010008575958307D
:101870000000000001000000020000000300000062
:1018800004000000050000000600000058000000F1
:101890005F00000098000000990000009A0000001E
:1018A0009B00000001000000020000000300000097
:1018B0000400000005000000060000000100000018
:0C18C00010000000000000000024F400F4
:04000005080000ED02
:00000001FF
