:020000040800F2
:10000000001700202902000837150008B312000865
:1000100035150008010600087517000800000000EB
:100020000000000000000000000000009101000836
:100030000306000800000000D50100084115000873
:10004000430200084302000843020008430200087C
:10005000430200084302000843020008430200086C
:10006000430200084302000843020008430200085C
:10007000430200084302000843020008430200084C
:10008000430200084302000843020008430200083C
:10009000430200084302000843020008430200082C
:1000A000430200084302000843020008430200081C
:1000B00043020008CD15000843020008430200086F
:1000C00043020008430200084302000843020008FC
:1000D00043020008430200084302000843020008EC
:1000E00043020008430200084302000800F002F83F
:1000F00000F03FF80AA090E8000C82448344AAF183
:100100000107DA4501D100F034F8AFF2090EBAE880
:100110000F0013F0010F18BFFB1A43F0010318473B
:10012000E821000008220000103A24BF78C878C1F6
:10013000FAD8520724BF30C830C144BF04680C60ED
:10014000704700000023002400250026103A28BF35
:1001500078C1FBD8520728BF30C148BF0B60704739
:10016000642900F0D780002070471FB51FBD10B56F
:1001700010BD00F015FA1146FFF7F7FF01F018FB6C
:1001800000F033FA03B4FFF7F2FF03BC01F003FB06
:10019000224B19680868B0E8F00F80F30988BFF3B4
:1001A0006F8F4FF0000080F311884EF00D0E7047F6
:1001B0000000000006480068006880F3088862B606
:1001C00061B6BFF34F8FBFF36F8F00DF00BF00BF7B
:1001D00008ED00E0EFF30980BFF36F8F0F4B1A6853
:1001E00020E9F00F106008B54FF0500080F311883F
:1001F000BFF34F8FBFF36F8F01F06EFE4FF0000023
:1002000080F31188BDE8084019680868B0E8F00F6D
:1002100080F30988BFF36F8F704700BF2000002074
:10022000EFF3058070470000094880470948004700
:10023000FEE7FEE7FEE7FEE7FEE7FEE7FEE7FEE796
:10024000FEE7FEE704480549054A064B70470000F3
:10025000CB150008ED000008001100200017002059
:100260000013002000130020704700000FB4044961
:1002700010B503AA029800F07DF910BC5DF814FBDC
:100280000C0000200FB41CB5074B06AA7B4469463E
:100290000090059800F055F90020694600F064F9D7
:1002A0001CBC5DF814FB0000D90200002DE9F041F0
:1002B0000E460446002020622046E168884730B39D
:1002C000252805D0D4E901219047206A401CF2E797
:1002D000E168204600278847050018D0A5F14100B5
:1002E000192802D820354FF40067324629462046A7
:1002F0002760FFF735FF40B1012804D0F61D26F036
:1003000007060836D8E7361DD6E72846DAE7206A1A
:10031000BDE8F0812DE9F0410646002410687529FA
:10032000314616A510D0AFF30080002802DA404213
:1003300013A507E031688A0701D512A502E0490735
:1003400004D511A5012401E0AFF3008000210A22A9
:1003500006F1240709E0B0FBF2FCB0FBF2F302FB6C
:100360001C00303078541846491C0028F3D123462D
:100370002A463046BDE8F04100F084B80000000095
:100380002D0000002B0000002000000010B5431CD1
:1003900002E010F8011B71B18107FAD14FF0013270
:1003A00002C88C1A8C4314EAC211F9D0C01A0A068A
:1003B00003D0C01E10BDC01A10BD0A0401D0801E9B
:1003C00010BD0902FCD0401E10BD10B5203AC0F08F
:1003D0000B80B1E81850203AA0E81850B1E8185046
:1003E000A0E81850BFF4F5AF5FEA027C24BFB1E883
:1003F0001850A0E8185044BF18C918C0BDE81040F4
:100400005FEA827C24BF51F8043B40F8043B08BFFC
:100410007047D20728BF31F8023B48BF11F8012BC3
:1004200028BF20F8023B48BF00F8012B70474FF06F
:10043000000200B5134694469646203922BFA0E834
:100440000C50A0E80C50B1F12001BFF4F7AF090740
:1004500028BFA0E80C5048BF0CC05DF804EB890031
:1004600028BF40F8042B08BF704748BF20F8022B74
:1004700011F0804F18BF00F8012B7047704770478C
:10048000704770472DE9F0470D469946924604465D
:1004900000F124080168880604D5E06921F0100104
:1004A000216000E00120A84201DD471B00E0002799
:1004B000A1697A1902EB0900081AA0612078C00628
:1004C00002D42046AFF30080002608E0D4E90121E1
:1004D0001AF806009047206A401C761C20624E45A0
:1004E000F4DB2078C0060AD52046AFF3008006E092
:1004F000D4E9012130209047206A401C2062381E38
:10050000A7F10107F4DC07E0D4E9012118F80500A0
:100510009047206A401C2062281EA5F10105F3DCEB
:100520002046AFF300802078000602D50220BDE807
:10053000F0870120FBE7000001694A1C026108788E
:10054000704700B58FB0CDE9013100210591054913
:100550007944CDE9031011466846FFF7A7FE0FB0B6
:1005600000BD0000E5FFFFFF0A6802F8010B0A600A
:1005700070470000074B70B50D467B44FFF7E1FF65
:100580000446284600F008F810B14FF0FF3070BD67
:10059000204670BD1B120000007B00F080007047F9
:1005A000754600F029F8AE4605006946534620F02E
:1005B0000700854618B020B5FFF744FEBDE820408F
:1005C0004FF000064FF000074FF000084FF0000B0F
:1005D00021F00701AC46ACE8C009ACE8C009ACE8C2
:1005E000C009ACE8C0098D4670470446AFF30080EF
:1005F0002046FFF7C7FD0000004870479C10002010
:10060000FEE7704772B6FEE72DE9F84FDFF8B891C4
:100610000024A9F1040B23460F2709F1040AABF1CA
:10062000040EC9E00125A5402A40AA427DD1674EAB
:10063000D1F804C0ACEB0608B44532D014DCBCF1F0
:10064000030F3AD009DCBCF1000F2AD0BCF1010F36
:100650001CD0BCF1020F31D11DE0BCF1110F17D03D
:10066000BCF1120F2AD119E0B8F5881F19D006DCA9
:10067000B8F5803F15D0B8F5801F1FD111E0B8F54F
:10068000001F0ED0B8F5041F18D10AE0CB6815E0A2
:10069000CB681B1D12E0CB6808330FE0CB680C332E
:1006A0000CE08B682BB1012B4FF0080303D04561A0
:1006B00004E0042302E0056100E00023FF2A01D8E2
:1006C000064601E000F104064FEA840501D9A5F1D0
:1006D0002005D6F8008007FA05FC28EA0C0803FA82
:1006E00005F548EA0508C6F800804D68ED0062D5BA
:1006F000374DAE6946F00106AE61AD6924F00306E0
:1007000005F001050095334D06EB050CDCF80850AB
:10071000A607360F07FA06F825EA0805DFF8B880BD
:10072000404503D14FF0000817E044E0DFF8AC800B
:10073000404502D14FF001080FE0DFF8A4804045AA
:1007400002D14FF0020808E0DFF89880404502D15E
:100750004FF0030801E04FF0040808FA06F848EAF1
:100760000508CCF808804D68D9F80060ED024D46C8
:1007700001D5164300E096432E604D68DAF800601C
:10078000AD02554601D5164300E096432E604D68F4
:10079000DBF80060AD035D4601D5164300E09643EB
:1007A0002E604D68DEF80060ED03754601D51643F6
:1007B00000E096432E60641C0D682A46E5407FF4F5
:1007C00031AFBDE8F88F00000804014000001110AF
:1007D000001002400000014000080140000C0140F0
:1007E0000010014000140140C26821EA02030A40DF
:1007F00043EA0241016170470AB10161704709048F
:10080000FBE70000014880687047000010000020EE
:10081000024881680278114481607047100000200E
:10082000074810B5016841F010010160032000F095
:10083000A7F80F2000F006F800F050F8002010BDD7
:100840000020024030B505461F4887B0C16941F01D
:100850000201C161C06906A900F00200009001A870
:1008600000F036F90498B0B100F052F94000174991
:10087000174AB0FBF1F11748491E0260416040F28F
:10088000E7320021C0E903218160816100F018FB9B
:10089000040003D015E000F03BF9E8E70D4800F054
:1008A0003DFB04000DD11D2000F03CF8102D07D2B7
:1008B000002229461D2000F043F80748056000E0AB
:1008C000012407B0204630BD0010024040420F0016
:1008D0000004004064030020140000200F4808B505
:1008E000816941F001018161816901F0010100919B
:1008F000C16941F08051C161C069002200F080509F
:1009000000900F21901E00F01BF80548416821F06F
:10091000E06141F00071416008BD0000001002403C
:1009200000000140002809DB00F01F020121914076
:100930004009800000F1E020C0F80011704700007D
:10094000F0B40E4B1B680C46C3F30223C3F107053A
:10095000042D00D90425191D072901D2002300E028
:10096000DB1E012606FA05F1491E214099409E40F2
:10097000761E16403143F0BC00F0FDBE0CED00E0E9
:10098000064900F0070208684FF6FF03184040EAE6
:100990000220034A10430860704700000CED00E09D
:1009A0000000FA052DE9F0470F46050061D0434EDF
:1009B000306800F00700B84209D2306820F0070024
:1009C00038433060306800F00700B84251D12868E1
:1009D0003B4C810712D5400703D5606840F4E060C6
:1009E00060602878000703D5606840F4605060605C
:1009F0006068A96820F0F000084360602878C007AC
:100A000028D06868012810D02168022810D08907F2
:100A100000292EDA616821F0030101436160FFF7CC
:100A2000F1FE804641F288390DE021688903EFE745
:100A30008901EDE7FFF7E6FEA0EB0801494502D981
:100A40000320BDE8F0876068696800F00C00B0EB37
:100A5000810FEFD1306800F00700B8420BD9306841
:100A600020F0070038433060306800F00700B842DB
:100A700001D00120E5E72878400705D56068E968DE
:100A800020F4E060084360602878000706D56068BD
:100A9000296920F4605040EAC100606000F058F815
:100AA0006168084AC1F30311515CC84006490860F7
:100AB00006480068FFF7C6FE0020C2E7002002409B
:100AC00000100240CA2200081C0000201400002070
:100AD0000F2202600C4A536803F00303436053681B
:100AE00003F0F0038360536803F4E063C36052686B
:100AF0004FF4E06303EAD20202610448006800F0A8
:100B0000070008607047000000100240002002400B
:100B10000448054900684968044AC1F30221515C50
:100B2000C84070471C00002000100240DA22000874
:100B30000448054900684968044AC1F3C221515C70
:100B4000C84070471C00002000100240DA22000854
:100B50000E4A51680E4801F00C03042B11D0082BEB
:100B60000FD10C48C1F38343C903C05C0AD5516857
:100B7000084AC1F34041921E515C054A5043B0FB04
:100B8000F1F07047044948437047000000100240EC
:100B900000127A00BA22000800093D002DE9F84F42
:100BA000040070D02078C04DC00749D06868C0F3F9
:100BB0008100012807D06868C0F38100022809D1AC
:100BC0006868C00306D52868800339D560680028A6
:100BD000E7D035E06068B0F5803F0BD010B1B0F5DC
:100BE000A02F11D0286820F480302860286820F4D5
:100BF000802002E0286840F480302860606890B16E
:100C0000FFF700FE06460AE0286840F480202860CE
:100C1000F0E700BFFFF7F6FD801B642873D8286853
:100C20008003F7D50CE0FFF7EDFD064605E000BFB9
:100C3000FFF7E8FD801B6428F0D828688003F7D40C
:100C400020789A4E80074FF001094FF0000839D5FF
:100C5000686810F00C0F07D06868C0F381000228A4
:100C600009D16868C00306D42868800714D52069B4
:100C7000012808D110E02069B0B1C6F80090FFF754
:100C8000C1FD074605E00AE1FFF7BCFDC01B0228D5
:100C9000C4D828688007F7D52868616920F0F80073
:100CA00040EAC10028600DE0C6F80080FFF7AAFD09
:100CB000074604E0FFF7A6FDC01B022823D82868DA
:100CC0008007F7D4207800072CD57948A169D9B1DD
:100CD000C0F80090FFF796FD074604E0FFF792FD8D
:100CE000C01B02280FD8686A8007F7D571484FF4F7
:100CF000FA510068B0FBF1F0009000BF0098411E6F
:100D00000091FAD20EE080E0C0F80080FFF77AFD93
:100D1000074604E0FFF776FDC01B022875D8686A15
:100D20008007F7D42078400760D5E8690027C00025
:100D300008D4E86940F08050E861E869012700F0D4
:100D4000805000905C480168C90513D4016883464F
:100D500041F480710160FFF755FD824606E000BF57
:100D6000FFF750FDA0EB0A0064284ED8DBF8000026
:100D7000C005F5D5E06801280AD008B1052813D0D0
:100D8000286A20F001002862286A20F0040002E0AE
:100D9000286A40F001002862E06841F2883B98B17F
:100DA000FFF730FD82460BE0286A40F0040028621D
:100DB000EEE700BFFFF726FDA0EB0A0159455AD820
:100DC000286A8007F6D50CE0FFF71CFD824605E097
:100DD000FFF718FDA0EB0A0159454CD8286A800797
:100DE000F6D41FB1E86920F08050E861E06988B36B
:100DF0006968C1F38101022944D00228C6F86080E5
:100E000004D0FFF7FFFC044638E034E0FFF7FAFCBB
:100E1000074604E0FFF7F6FCC01B02282BD8286821
:100E20008001F7D4206AB0F5803F05D16868A168D9
:100E300020F4003008436860D4E908010843696879
:100E400021F4741108436860C6F86090FFF7DAFC7B
:100E5000044606E025E000BFFFF7D4FC001B022893
:100E600009D828688001F7D51BE000BFFFF7CAFC4E
:100E7000001B022802D90320BDE8F88F28688001F2
:100E8000F4D40EE00128F7D06868226A00F48031BB
:100E9000914204D1616A00F47010884201D00120AF
:100EA000EAE70020E8E700000010024000004242AC
:100EB000800442421C0000200070004070477047D0
:100EC00010B5040003D094F83D0010B107E00120F4
:100ED00010BD002084F83C00204600F01EF80220DF
:100EE00084F83D00211D206800F076FB012084F885
:100EF000460084F83E0084F83F0084F8400084F8FF
:100F0000410084F8420084F8430084F8440084F8E7
:100F1000450084F83D00002010BD704790F83D105A
:100F2000012901D001207047022180F83D1001689D
:100F3000CA6842F00102CA6000680B49884208D0C2
:100F4000B0F1804F05D00949884202D00849884253
:100F500004D1816801F00701062903D0016841F03E
:100F60000101016000207047002C01400004004096
:100F700000080040704770B50446006801694FF0F2
:100F80000005C943890715D4C168C943890711D42D
:100F9000E91E0161012020772068806980072046D2
:100FA00002D0FFF7E7FF04E000F098F8204600F0D9
:100FB00096F8257720680169C943490717D4C168A5
:100FC000C943490713D46FF004010161022020775F
:100FD0002068806910F4407F204602D0FFF7CAFFE6
:100FE00004E000F07BF8204600F079F825772068CF
:100FF0000169C943090716D4C168C943090712D456
:101000006FF008010161042020772068C069800723
:10101000204602D0FFF7AEFF04E000F05FF8204664
:1010200000F05DF8257720680169C943C90617D427
:10103000C168C943C90613D46FF0100101610820CB
:1010400020772068C06910F4407F204602D0FFF767
:1010500091FF04E000F042F8204600F040F82577C8
:1010600020680169C943C90708D1C168C943C907D4
:1010700004D1891E0161204600F032F82068016920
:10108000C943090609D4C168C943090605D46FF0EC
:10109000800101612046FFF711FF20680169C94303
:1010A000490609D4C168C943490605D46FF0400117
:1010B0000161204600F01EF820680169C9438906D5
:1010C0000BD4C168C943890607D46FF020010161C0
:1010D0002046BDE87040FFF7F2BE70BD7047704714
:1010E00000680349884201D1FFF792BB70470000B6
:1010F00000040040704770B5040004D094F841002B
:10110000002510B106E0012070BD84F84050204653
:1011100000F024F8242084F841002068C16821F4FC
:101120000051C160204600F08DFA2068016921F469
:10113000904101612068416921F02A0141612068E4
:10114000C16841F40051C1606564202084F8410009
:1011500084F842006563002070BD000070B586B061
:101160000024009401940294039403682648254EB9
:10117000022103220515B3421ED1836943F4804343
:101180008361836903F480430493836943F0040318
:10119000836180691D4E00F0040004900802CDE9CF
:1011A0000001039269463046FFF72EFACDE900545C
:1011B00069463046029420E0154EB3421FD1C36900
:1011C00043F48023C361C36903F4802304938369D8
:1011D00043F0080383618069CDE9005100F0080005
:1011E000CDE903200B4D69462846FFF70DFAE814B8
:1011F000CDE90004694628460294FFF705FA06B0D7
:1012000070BD00000038014000100240000801409D
:1012100000480040000C01402DE9F843044690F8D6
:1012200041001F4616460D46202802D00220BDE888
:10123000F8837DB176B100206064212084F84100FC
:10124000FFF7E0FAA6848046E684A068B0F5805FE8
:1012500002D003E00120EAE7206910B12E46002504
:101260000EE000260CE08021204600F047FAA0B9ED
:10127000AEB116F8010B21684860E08C401EE08496
:10128000E08C43464FF0000200970028EBD14FF06E
:101290004001204600F032FA30B10320C7E735F8AC
:1012A000020BC0F30800E6E7202084F8410000208C
:1012B000BDE7FEE794B032A0002500681390342209
:1012C00030496846FFF781F82E49182234310DA8BD
:1012D000FFF77BF8DFF8B0B04FF4005A0DF1340996
:1012E00051465846FFF780FA062D00D3002527A166
:1012F00059F8252013A8FEF7C5FF002435E013AEEA
:101300006F46305D4FF47A7800EB8000C119434698
:1013100005221F48F039FFF77FFF305D434600EBA1
:101320008000C11905221B48F039FFF775FF6420C2
:1013300000F053FA305D434600EB8000C1190522EE
:101340001448F039FFF768FF642000F046FA305D7A
:10135000434600EB8000C11905220E48F039FFF723
:101360005BFF404600F039FA641C13A8FFF70EF843
:10137000A042C4D840F6B8306D1C00F02EFAAFE79A
:10138000313638006C22000800100140256400004E
:10139000D40200201C030020074D4FF400544EF6E9
:1013A000602621462846FFF71FFA04A0FEF75EFFDD
:1013B000304600F012FAF4E700100140696E6672E0
:1013C0006120636F6E74726F6C20207665722031BD
:1013D0002E300D0A0000000010B596B01C221149F5
:1013E0006846FEF7F2FF0021684600F002FA0E4C54
:1013F0000C491C2220601C3107A8FEF7E6FF0021E3
:1014000007A800F0F6F9074960601C2238310EA8E1
:10141000FEF7DBFF00210EA800F0EBF9A06016B08C
:1014200010BD0000182200080000002070B586B032
:10143000002421480094019402940394816941F0AE
:1014400010018161816901F010010491816941F00D
:1014500020018161816901F020010491816941F0DD
:1014600008018161816901F008010491816941F0FD
:10147000040181618069114E00F004004FF40055B1
:101480000490002229463046FFF7B6F90120009566
:10149000CDE901040220039069463046FFF7B4F815
:1014A000C020009012200190032003906946044858
:1014B000FFF7AAF806B070BD00100240001001400E
:1014C000000C01400C4810B50A4901604FF4165158
:1014D0004160002181600C22C160C0E90412816179
:1014E000C161FFF708FE002803D0BDE81040FFF7F8
:1014F00089B810BD00380140D40200200C4810B556
:101500000A4901604FF416514160002181600C22AC
:10151000C160C0E904128161C161FFF7ECFD0028E0
:1015200003D0BDE81040FFF76DB810BD0048004083
:101530001C030020FEE7FEE7012000F04EF9FBE768
:1015400010B5502080F31188BFF34F8FBFF36F8F1A
:1015500000F09CFD18B104494FF080500860002055
:1015600080F3118810BD000004ED00E030B58FB0AD
:1015700028216846FEF75BFF14210AA8FEF757FFF3
:1015800001210804CDE900100024029402250491F1
:10159000CDE907504FF4E01009906846FFF7FEFAD6
:1015A00008B172B6FEE70F20CDE90A054FF480605E
:1015B000CDE90C4002210AA80E94FFF7F3F90028A8
:1015C00001D072B6FEE70FB030BD70470148FFF79B
:1015D000D2BC000064030020F0B50268164B174C23
:1015E000174D4FF08047984205D0B84203D0A04233
:1015F00001D0A84203D122F070064A6832439842D3
:1016000005D0B84203D0A04201D0A84203D122F4B1
:101610004074CA6822434C6922F08002224302606F
:101620008A68C2620A688262984201D109690163CC
:1016300001214161F0BD0000002C01400004004088
:101640000008004070B5044600680169E26821F4B2
:101650004051114301612169A06808436169084351
:101660002168CA6841F20C639A430243CA60206849
:101670004169A26921F44071114341611E4920680A
:10168000884202D1FFF754FA01E0FFF741FA00EB7C
:10169000C00101EB0012606864218000B2FBF0F32E
:1016A000B3FBF1F36FF018067343B2FBF0F5B2FB36
:1016B000F0F605EB8305322303EB0515B5FBF1F5D9
:1016C000B6FBF1F605F0F00505EB0615B2FBF0F6FA
:1016D000B2FBF0F0B0FBF1F06FF01802504306EBF4
:1016E000800003EB0010B0FBF1F0216800F00F0068
:1016F0002844886070BD0000003801402DE9F041A9
:10170000984617460E460446069D27E0681C25D0DD
:101710002DB1FFF777F8A0EB0800A8421ED920688A
:101720000C3050E8001F21F4D07140E80012002A6C
:10173000F5D12068143050E8001F21F0010140E885
:101740000012002AF5D1202084F8410084F84200DC
:10175000002084F840000320BDE8F0812068006884
:1017600036EA000004D00020B842CFD00020F3E7D2
:101770000120F9E7FEE70907090E002804DB00F164
:10178000E02080F80014704700F00F0000F1E02026
:1017900080F8141D7047704704490A685206FCD54A
:1017A000024AC1B2121D11607047000000380140AA
:1017B000FFF736F8FFF7DAFEFFF738FEFFF782FE95
:1017C000FFF79CFEFFF708FE00F00EF8FEE701466B
:1017D0000020842900D0C81C704710B500B9012032
:1017E00000F016FB002010BD10B500F037FB002004
:1017F00010BD7FB50D4604464169B0F9080081B1BE
:10180000A16971B1FFF7E3FFD4E905128DE8070084
:10181000D4E900102B46226900F00DFC039004B0BF
:1018200070BDFFF7D4FF03A9CDE90001208A2B4644
:1018300082B2D4E9001000F0D1FB012801D00020D1
:10184000EDE70398EBE700002DE9F041184C0F4657
:10185000054666692068001D00F016FA38B9206850
:1018600090F82C1001208840A1698143A161681C77
:1018700007D137B12168BDE8F0410E48091D00F0DD
:1018800047BA20683544B5424560216805D2A06852
:10189000BDE8F041091D00F023BA6068091D00F0A1
:1018A0001FFA206B854200D22563BDE8F08100005D
:1018B00020000020880400202DE9F041054600F0BA
:1018C00033FA2E4C2069401C206120682C4F10B147
:1018D000E06940B32DE025602069012829D1002668
:1018E00006EB860007EB800000F0ECF9761C072E73
:1018F000F6D323488C3000F0E5F92148A03000F001
:10190000E1F91F48B43000F0DDF91D48C83000F09F
:10191000D9F91B48DC3000F0D5F919488C306060EB
:101920001430A06005E02068E96AC06A884200D8E7
:101930002560E06A401CE062E96A0120A2698840F3
:101940001043A06101EB810007EB8000291D00F02E
:10195000DFF900F009FAE06900280CD02068E96A94
:10196000C06A884207D207494FF080500860BFF331
:101970004F8FBFF36F8FBDE8F08100002000002083
:10198000AC03002004ED00E010B5044690F85100CF
:1019900058B101280CD002280FD0502080F31188B4
:1019A000BFF34F8FBFF36F8FFEE7206B00F0F0F9AE
:1019B0002046BDE8104000F0EBB910BD10484FF4D0
:1019C0004061420706D0C01D0D4920F00700411AB2
:1019D000C1F540610B4A00230144C2E90003083904
:1019E000103A21F0070111604B600B600B1AC0E93F
:1019F000001393604FF000405360D06070470000C8
:101A00009C0400206C000020144E154CA6F1C80761
:101A10004FF08058DFF84C9012E000BF00F084F9DE
:101A2000F068C568281D00F02FF92069401E20616C
:101A3000E068401EE06000F097F92846FFF7A4FF39
:101A4000E0680028EAD138680128F9D9C9F800808F
:101A5000BFF34F8FBFF36F8FF2E7000074040020D5
:101A60002000002004ED00E02DE9F0479A46DDE972
:101A7000098481466FF00303206B03EB820210445C
:101A8000089D20F00706700707D0502080F31188CA
:101A9000BFF34F8FBFF36F8FFEE723180A5C83F805
:101AA00034200A5C12B1401C1028F6D3002784F8B9
:101AB0004370072D00D30625E562C4E91157201DA8
:101AC00000F00BF904F1180000F007F92461C5F1EA
:101AD00007006462A061E76484F85070524649468A
:101AE000304600F0BFF82060B8F1000F01D0C8F810
:101AF0000040BDE8F087000030B5114900E0114614
:101B00000A688242FBD34B685C18844203D1406868
:101B100018444860084643681C18944209D1084C90
:101B2000103C2468A24209D052681A4442600A68F4
:101B300012680260814200D0086030BD0460F9E79D
:101B40006C00002006484168096829B14168C968ED
:101B5000C9684968016370474FF0FF31FAE7000038
:101B60002000002008484068401C4FF0500080F3DF
:101B7000118804D0BFF34F8FBFF36F8FFEE7BFF321
:101B80004F8FBFF36F8FFEE7740000202DE9F04107
:101B90000546002700F098F9314E306808B9FFF784
:101BA0000DFFF06805424BD1C5B3083568070ED06C
:101BB00005F00700C0F108000544680707D0502071
:101BC00080F31188BFF34F8FBFF36F8FFEE72DB304
:101BD0007068854234D82248103001460C6801E014
:101BE00020460C466168A94202D221680029F7D13B
:101BF00031688C4224D0076821680160606808372A
:101C0000411B10290FD96019420708D0502080F3DA
:101C10001188BFF34F8FBFF36F8FFEE710E0416075
:101C20006560FFF769FF61687068401A7060B268AC
:101C3000904200D2B060F06801430020C4E9000186
:101C400000F088FA780707D0502080F31188BFF39E
:101C50004F8FBFF36F8FFEE73846BDE8F08100007D
:101C60005C00002010B5031F4FF080741C601B1F28
:101C700021F001011960191F024B0B601439403823
:101C80000A6010BD651B0008D0E9013201699A6045
:101C9000D0E901235A604A68824201D182684A60D1
:101CA000002202610868401E086008687047000052
:101CB000034B036003F154000860802010607047FC
:101CC0008000002000F108014FF0FF32C0E901124E
:101CD000C16001610021016070470021016170470E
:101CE00030B50B685A1C02D000F1080202E002690C
:101CF00004E02246546825689D42FAD953684B6037
:101D000099608A60516008610168491C016030BDBA
:101D100042684A6093688B6093685960916008617B
:101D20000168491C01607047502080F31188BFF39F
:101D30004F8FBFF36F8F0A494868401C48600128E5
:101D40000CD10848006810F0FF0F07D0502080F336
:101D50001188BFF34F8FBFF36F8FFEE7704700000E
:101D60007400002004ED00E00849486828B1401ED6
:101D7000486001D180F311887047502080F31188AA
:101D8000BFF34F8FBFF36F8FFEE70000740000209A
:101D900070B5002827D0144DA0F108046168E868E8
:101DA000014207D1502080F31188BFF34F8FBFF35A
:101DB0006F8FFEE722683AB1502080F31188BFF39D
:101DC0004F8FBFF36F8FFEE78143616000F07CF8B7
:101DD00060686968084468602046FFF78DFEBDE8CA
:101DE000704000F0B7B970BD5C0000204FF0E020FB
:101DF00000210161816105494FF47A720968B1FBE4
:101E0000F2F1491E41610721016170471C00002069
:101E100010B5020014D00F48806B38B1502080F309
:101E20001188BFF34F8FBFF36F8FFEE700F04CF8C0
:101E300000211046FFF708FD00F08CF9002807D1BB
:101E400005494FF080500860BFF34F8FBFF36F8F8D
:101E500010BD00002000002004ED00E010B586B0A9
:101E60000024039405AA04A903A80494FFF720FF03
:101E7000DDE903010094CDE9011000230EA1104813
:101E8000059A00F0D8F80F490028486311D0502077
:101E900080F31188BFF34F8FBFF36F8F4FF0FF3088
:101EA00008630120C8614C6106B0BDE8104000F035
:101EB00041B806B010BD000049444C450000000088
:101EC000091A0008200000200248816B491C816328
:101ED00070470000200000201448816B11B10121DF
:101EE00041627047002141628169B1FA81F1C1F11B
:101EF0001F0101EB81020E4951F822306BB101EB59
:101F0000820101F108034A6852684A609A4201D18D
:101F100052684A60D16801607047502080F3118890
:101F2000BFF34F8FBFF36F8FFEE70000200000204C
:101F3000AC0300201CB5264908780190FF200870EA
:101F400008788DF800009DF800009DF8002000F052
:101F5000F000904207D0502080F31188BFF34F8FDC
:101F6000BFF36F8FFEE79DF800001A4B00F05000A2
:101F700018700720986005E09DF8002052008DF849
:101F80000020401E9DF800201206F5D4986003281A
:101F900007D0502080F31188BFF34F8FBFF36F8FAE
:101FA000FEE74FF440709860019808700A48016895
:101FB00041F470010160016841F070410160FFF778
:101FC00015FF00205860FEF7F5F800201CBD00004A
:101FD00000E400E07400002020ED00E02DE9FF5F48
:101FE0008346DDE90E87994616468A469000FFF73C
:101FF000CDFD05001CD05420FFF7C8FD040014D00F
:102000000020256384F85100CDE90240CDE9008726
:102010004B46324651465846FFF726FD2046FFF70D
:102020004BFC012004B0BDE8F09F2846FFF7B0FE4E
:102030004FF0FF30F6E7F0B585B0DDE90B640A9D9F
:10204000A6B1DCB1542700972663022684F85160BC
:10205000002604AFCDE90246CDE90057FFF704FDA5
:102060002046FFF729FC049805B0F0BD502080F30E
:102070001188BFF34F8FBFF36F8FFEE7502080F3BF
:102080001188BFF34F8FBFF36F8FFEE72DE9F0414B
:102090002E4C0027A06B40B1206A401C2062606A71
:1020A00000B101273846BDE8F0816669761C66619B
:1020B00013D16068006838B1502080F31188BFF3F5
:1020C0004F8FBFF36F8FFEE76068A1686160A0600B
:1020D000A06A401CA062FFF735FD206BDFF870801E
:1020E000864209D36068006880B16068C068C568CE
:1020F000686886420DD220632068C06A00EB8001C8
:1021000058F821000128CAD90127C8E74FF0FF304D
:10211000F1E7281DFFF7B8FDA86A18B105F118000E
:10212000FFF7B2FDE86A0121A26981401143A16174
:1021300000EB800108EB8100291DFFF7E9FDE86A4B
:102140002168C96A8842CDD30127CBE7200000204F
:10215000AC0300202DE9F0472C4D00242746A86B46
:1021600038B1FFF7E1FDA86B401EA863A86B40B132
:1021700046E0502080F31188BFF34F8FBFF36F8F7D
:10218000FEE72969224E0120D1B3A6F1B4098046A9
:102190003068E8B1F068C46804F11800FFF774FD16
:1021A000201DFFF771FDE06AAA6908FA00F11143EA
:1021B000A96100EB800109EB8100211DFFF7A8FD5B
:1021C000E06A2968C96A8842E2D3C5F82480DFE75B
:1021D0000CB1FFF7B7FC2C6A44B14646FFF756FF37
:1021E00000B16E62641EF9D100202862686A38B1BD
:1021F0000849012738070860BFF34F8FBFF36F8F7F
:10220000FFF7B2FD3846BDE8F0870000200000204F
:102210006004002004ED00E0FC22000839150008ED
:10222000000000000000000080000000000000002E
:1022300000000000E422000899130008FFFF0000DE
:10224000000000008000000000000000000000000E
:10225000EC220008B5120008000000000000000099
:10226000800000000000000000000000FAFD0200F5
:10227000DFFAFD0201DFFAFD0202DFFAFD0203DFF1
:10228000FAFD0204DFFAFD0205DFFAFD0206DFFABD
:10229000FD0207DFFAFD0208DFFAFD0209DF000098
:1022A0000100000002000000030000000400000024
:1022B00005000000060000000102020304050607F5
:1022C00008090A0B0C0D0E0F101000000000000092
:1022D00000000102030406070809000000000102D3
:1022E000030400006C65645461736B00696E667270
:1022F00061436F6E746F6C5461736B0064656661EB
:10230000756C745461736B00282300080000002072
:102310008000000028010008A82300088000002099
:1023200080160000440100080000000000000000CA
:10233000000000000000000001000000100000008C
:10234000000000000024F400000000000000000075
:10235000000000000000000000000000000000007D
:10236000000000000000000000000000000000006D
:10237000000000000000000000000000000000005D
:10238000000000000000000000000000000000004D
:10239000000000000000000000000000000000003D
:0823A000AAAAAAAA000000008D
:04000005080000ED02
:00000001FF
